16XX             000220180529                                                                                           
26FF     7111111 151830  000000000000000000020180501201804300705016FFG287070625002368    070517000004800                
26FF     7111111 180997  000000000000000000020180501201805010705016FFG287070809001354    070546000001400                
26FF     7111111 165703  000000000000000000020180504201805030705166FFG287111124003654    0705A7000001400                
26FF     7111111 902805  000000000000000000020180508201805080705166FFG287140115001727    070593000000900                
26FF     7111111 942722  000000000000000000020180510201805100707106FFG287170331006013    070765000003000                
26FF     7111111 166614  000000000000000000020180511201805100707076FFG287090203009025    070777000004200                
26FF     7111111 915270  000000000000000000020180514201805140705166FFG287130408011733    070595000000900                
26FF     7111111 967916  000000000000000000020180514201805130707036FFG287120531019062    070725000003000                
26FF     7111111 951324  000000000000000000020180515201805140707066FFG287140613006030    070758000001000                
26FF     7111111 993627  000000000000000000020180519201805190707096FFG287060712001103    070776000001000                
26FF     7111111 148753  000000000000000000020180519201805180707136FFG287140808002094    0707A5000001400                
26FF     7111111 110286  000000000000000000020180520201805190707156FFG287120514002106    0707B1000001000                
26FF     7111111 128391  000000000000000000020180520201805190706026FFG287140328003085    070689000001000                
26FF     7111111 141202  000000000000000000020180523201805230707156FFG287120216003110    070717000003000                
26FF     7111111 980919  000000000000000000020180526201805250707096FFG287090709002152    070716000003000                
26FF     7111111 959292  000000000000000000020180527201805260707176FFG287170509003119    070728000004200                
26FF     7111111 149011  000000000000000000020180527201805260707186FFG287160513006145    0707A6000001400                
26FF     7111111 164755  000000000000000000020180528201805280707176FFG287120514003109    0707A6000001000                
26FF     FAMILY  00014329000000000000000000020180501201804300705016FFG287051222727401    070585000004800                
26FF     FAMILY  00016735000000000000000000020180501201804300705016FFG287090512002377    0705A5000000750                
26FF     FAMILY  00017150000000000000000000020180501201804300705016FFG287160804002475    070562000001200                
26FF     FAMILY  00016436000000000000000000020180502201805010705016FFG287090416001455    070536000004200                
26FF     FAMILY  00014220000000000000000000020180504201805030705166FFG287080116003599    0705B4000003240                
26FF     FAMILY  00015762000000000000000000020180505201805040707056FFG287080417003010    070775000004800                
26FF     FAMILY  00014286000000000000000000020180506201805050705166FFG287120517001666    0705A5000005760                
26FF     FAMILY  00015962000000000000000000020180510201805090707156FFG287130930002024    07077Y000001400                
26FF     FAMILY  00016846000000000000000000020180510201805090707076FFG287T05122333020    070714000003000                
26FF     FAMILY  00016735000000000000000000020180511201805100705166FFG287091211001607    070559000000750                
26FF     FAMILY  00016500000000000000000000020180512201805110705166FFG287120217010632    0705A2000003000                
26FF     FAMILY  00016058000000000000000000020180513201805120707066FFG287120508002068    07075Y000004200                
26FF     FAMILY  00016025000000000000000000020180514201805130707136FFG287171103004033    070725000000900                
26FF     FAMILY  00016025000000000000000000020180516201805150705166FFG287141129002712    0705A2000000900                
26FF     FAMILY  00016728000000000000000000020180516201805150705166FFG287120327005650    070522000005500                
26FF     FAMILY  00015505000000000000000000020180520201805190707096FFG287080605005100    070737000001400                
26FF     FAMILY  00016839000000000000000000020180524201805230707216FFG287150522006148    07072X000001400                
26FF     FAMILY  00013822000000000000000000020180524201805230707206FFG287150605006142    0707A8000001400                
26FF     FAMILY  00012416000000000000000000020180526201805250707026FFG287120504007115    070738000001000                
26FF     FAMILY  00015663000000000000000000020180526201805250707026FFG287120426001071    070756000003000                
26FF     HILIFE  D633    000000000000000000020180510201805090705166FFG287101116001625    07051X000003000                
26FF     OKM     0116    000000000000000000020180511201805100705166FFG287060427010641    070555000001400                
26FF     OKM     1027    000000000000000000020180523201805220707096FFG287120215001095    070784000004200                
36XX             0002018052900000000098800000000000041                                                                  