16XX             000220160630                                                                                           
26FF     7111111 00011093000000000000000000020160625201606250512316FFB923040903000000    041277000002195                
26FF     HILIFE  00011093000000000000000000020160626201606260512316FFB923040702000000    041239000003121                
26FF     FAMILY  00011093000000000000000000020160627201606270512316FFB923040606000000    041223000002150                
26FF     OKM     00011093000000000000000000020160628201606280512316FFB923040705000000    0412BX000002821                
36XX             0002016063000000000010287000000000004                                                                  