16XX             000220180502                                                                                           
26FF     7111111 154884  000000000000000000020180425201804240707096FFG287090709002002    070775000003000                
26FF     7111111 170163  000000000000000000020180426201804250707016FFG287070112001007    07071X000005500                
26FF     7111111 151830  000000000000000000020180501201804300707076FFG287090203009011    07078X000001400                
26FF     7111111 180997  000000000000000000020180501201805010707096FFG287060712001013    070787000003000                
26FF     FAMILY  00016551000000000000000000020180426201804250707146FFG287160401007017    070715000006800                
26FF     FAMILY  00014329000000000000000000020180501201804300707066FFG287160616008020    070769000008000                
26FF     FAMILY  00016735000000000000000000020180501201804300707066FFG287070809001023    070753000004800                
26FF     FAMILY  00017150000000000000000000020180501201804300707036FFG287070614002026    07071Y000003240                
26FF     OKM     0232    000000000000000000020180427201804260707016FFG287070507015030    0707B2000004800                
36XX             0002018050200000000022247000000000009                                                                  