16XX             000220180502                                                                                           
26FF     7111111 154884  000000000000000000020180425201804240705016FFG287150604006497    0705B3000003000                
26FF     7111111 170163  000000000000000000020180426201804250705016FFG287170414005458    070585000004200                
26FF     7111111 151830  000000000000000000020180501201804300705016FFG287070625002368    070517000004800                
26FF     7111111 180997  000000000000000000020180501201805010705016FFG287070809001354    070546000001400                
26FF     FAMILY  00016551000000000000000000020180426201804250705016FFG287051222806406    070583000001197                
26FF     FAMILY  00014329000000000000000000020180501201804300705016FFG287051222727401    070585000004800                
26FF     FAMILY  00016735000000000000000000020180501201804300705016FFG287090512002377    0705A5000000750                
26FF     FAMILY  00017150000000000000000000020180501201804300705016FFG287160804002475    070562000001200                
26FF     OKM     0232    000000000000000000020180427201804260705016FFG287170807005484    070564000000900                
36XX             0002018050200000000022247000000000009                                                                  